{
  "_format": "hh-sol-artifact-1",
  "contractName": "Message",
  "sourceName": "contracts/Message.sol",
  "abi": [
    {
      "inputs": [
        {
          "internalType": "string",
          "name": "message_",
          "type": "string"
        },
        {
          "internalType": "uint256",
          "name": "fee_",
          "type": "uint256"
        }
      ],
      "stateMutability": "payable",
      "type": "constructor"
    },
    {
      "inputs": [],
      "name": "fee",
      "outputs": [
        {
          "internalType": "uint256",
          "name": "",
          "type": "uint256"
        }
      ],
      "stateMutability": "view",
      "type": "function"
    },
    {
      "inputs": [],
      "name": "message",
      "outputs": [
        {
          "internalType": "string",
          "name": "",
          "type": "string"
        }
      ],
      "stateMutability": "view",
      "type": "function"
    },
    {
      "inputs": [],
      "name": "owner",
      "outputs": [
        {
          "internalType": "address",
          "name": "",
          "type": "address"
        }
      ],
      "stateMutability": "view",
      "type": "function"
    }
  ],
  "bytecode": "0x6080604052604051610bbe380380610bbe8339818101604052810190610025919061039d565b803414610067576040517f08c379a000000000000000000000000000000000000000000000000000000000815260040161005e90610456565b60405180910390fd5b65048c273950008110156100b0576040517f08c379a00000000000000000000000000000000000000000000000000000000081526004016100a7906104c2565b60405180910390fd5b733e5c1429e97f8cd9c4ef409e02d1542992c8eca2600160006101000a81548173ffffffffffffffffffffffffffffffffffffffff021916908373ffffffffffffffffffffffffffffffffffffffff160217905550816000908161011491906106f9565b50806002819055506000600160009054906101000a900473ffffffffffffffffffffffffffffffffffffffff1673ffffffffffffffffffffffffffffffffffffffff1634604051610164906107fc565b60006040518083038185875af1925050503d80600081146101a1576040519150601f19603f3d011682016040523d82523d6000602084013e6101a6565b606091505b50509050806101ea576040517f08c379a00000000000000000000000000000000000000000000000000000000081526004016101e19061085d565b60405180910390fd5b50505061087d565b6000604051905090565b600080fd5b600080fd5b600080fd5b600080fd5b6000601f19601f8301169050919050565b7f4e487b7100000000000000000000000000000000000000000000000000000000600052604160045260246000fd5b61025982610210565b810181811067ffffffffffffffff8211171561027857610277610221565b5b80604052505050565b600061028b6101f2565b90506102978282610250565b919050565b600067ffffffffffffffff8211156102b7576102b6610221565b5b6102c082610210565b9050602081019050919050565b60005b838110156102eb5780820151818401526020810190506102d0565b60008484015250505050565b600061030a6103058461029c565b610281565b9050828152602081018484840111156103265761032561020b565b5b6103318482856102cd565b509392505050565b600082601f83011261034e5761034d610206565b5b815161035e8482602086016102f7565b91505092915050565b6000819050919050565b61037a81610367565b811461038557600080fd5b50565b60008151905061039781610371565b92915050565b600080604083850312156103b4576103b36101fc565b5b600083015167ffffffffffffffff8111156103d2576103d1610201565b5b6103de85828601610339565b92505060206103ef85828601610388565b9150509250929050565b600082825260208201905092915050565b7f496e636f7272656374206665652073656e740000000000000000000000000000600082015250565b60006104406012836103f9565b915061044b8261040a565b602082019050919050565b6000602082019050818103600083015261046f81610433565b9050919050565b7f46656520746f6f206c6f77000000000000000000000000000000000000000000600082015250565b60006104ac600b836103f9565b91506104b782610476565b602082019050919050565b600060208201905081810360008301526104db8161049f565b9050919050565b600081519050919050565b7f4e487b7100000000000000000000000000000000000000000000000000000000600052602260045260246000fd5b6000600282049050600182168061053457607f821691505b602082108103610547576105466104ed565b5b50919050565b60008190508160005260206000209050919050565b60006020601f8301049050919050565b600082821b905092915050565b6000600883026105af7fffffffffffffffffffffffffffffffffffffffffffffffffffffffffffffffff82610572565b6105b98683610572565b95508019841693508086168417925050509392505050565b6000819050919050565b60006105f66105f16105ec84610367565b6105d1565b610367565b9050919050565b6000819050919050565b610610836105db565b61062461061c826105fd565b84845461057f565b825550505050565b600090565b61063961062c565b610644818484610607565b505050565b5b818110156106685761065d600082610631565b60018101905061064a565b5050565b601f8211156106ad5761067e8161054d565b61068784610562565b81016020851015610696578190505b6106aa6106a285610562565b830182610649565b50505b505050565b600082821c905092915050565b60006106d0600019846008026106b2565b1980831691505092915050565b60006106e983836106bf565b9150826002028217905092915050565b610702826104e2565b67ffffffffffffffff81111561071b5761071a610221565b5b610725825461051c565b61073082828561066c565b600060209050601f8311600181146107635760008415610751578287015190505b61075b85826106dd565b8655506107c3565b601f1984166107718661054d565b60005b8281101561079957848901518255600182019150602085019450602081019050610774565b868310156107b657848901516107b2601f8916826106bf565b8355505b6001600288020188555050505b505050505050565b600081905092915050565b50565b60006107e66000836107cb565b91506107f1826107d6565b600082019050919050565b6000610807826107d9565b9150819050919050565b7f4661696c656420746f2073656e64206665650000000000000000000000000000600082015250565b60006108476012836103f9565b915061085282610811565b602082019050919050565b600060208201905081810360008301526108768161083a565b9050919050565b6103328061088c6000396000f3fe608060405234801561001057600080fd5b50600436106100415760003560e01c80638da5cb5b14610046578063ddca3f4314610064578063e21f37ce14610082575b600080fd5b61004e6100a0565b60405161005b919061019b565b60405180910390f35b61006c6100c6565b60405161007991906101cf565b60405180910390f35b61008a6100cc565b604051610097919061027a565b60405180910390f35b600160009054906101000a900473ffffffffffffffffffffffffffffffffffffffff1681565b60025481565b600080546100d9906102cb565b80601f0160208091040260200160405190810160405280929190818152602001828054610105906102cb565b80156101525780601f1061012757610100808354040283529160200191610152565b820191906000526020600020905b81548152906001019060200180831161013557829003601f168201915b505050505081565b600073ffffffffffffffffffffffffffffffffffffffff82169050919050565b60006101858261015a565b9050919050565b6101958161017a565b82525050565b60006020820190506101b0600083018461018c565b92915050565b6000819050919050565b6101c9816101b6565b82525050565b60006020820190506101e460008301846101c0565b92915050565b600081519050919050565b600082825260208201905092915050565b60005b83811015610224578082015181840152602081019050610209565b60008484015250505050565b6000601f19601f8301169050919050565b600061024c826101ea565b61025681856101f5565b9350610266818560208601610206565b61026f81610230565b840191505092915050565b600060208201905081810360008301526102948184610241565b905092915050565b7f4e487b7100000000000000000000000000000000000000000000000000000000600052602260045260246000fd5b600060028204905060018216806102e357607f821691505b6020821081036102f6576102f561029c565b5b5091905056fea2646970667358221220e4ab30e750338f271f1eea0ad08081808bdec63ff6c1a96fb29c0964873751d364736f6c634300081c0033",
  "linkReferences": {},
  "deployedLinkReferences": {}
}