{
  "_format": "hh-sol-artifact-1",
  "contractName": "Token",
  "sourceName": "contracts/Token.sol",
  "abi": [
    {
      "inputs": [
        {
          "internalType": "string",
          "name": "name_",
          "type": "string"
        },
        {
          "internalType": "string",
          "name": "symbol_",
          "type": "string"
        },
        {
          "internalType": "uint256",
          "name": "fee_",
          "type": "uint256"
        }
      ],
      "stateMutability": "payable",
      "type": "constructor"
    },
    {
      "inputs": [
        {
          "internalType": "address",
          "name": "spender",
          "type": "address"
        },
        {
          "internalType": "uint256",
          "name": "allowance",
          "type": "uint256"
        },
        {
          "internalType": "uint256",
          "name": "needed",
          "type": "uint256"
        }
      ],
      "name": "ERC20InsufficientAllowance",
      "type": "error"
    },
    {
      "inputs": [
        {
          "internalType": "address",
          "name": "sender",
          "type": "address"
        },
        {
          "internalType": "uint256",
          "name": "balance",
          "type": "uint256"
        },
        {
          "internalType": "uint256",
          "name": "needed",
          "type": "uint256"
        }
      ],
      "name": "ERC20InsufficientBalance",
      "type": "error"
    },
    {
      "inputs": [
        {
          "internalType": "address",
          "name": "approver",
          "type": "address"
        }
      ],
      "name": "ERC20InvalidApprover",
      "type": "error"
    },
    {
      "inputs": [
        {
          "internalType": "address",
          "name": "receiver",
          "type": "address"
        }
      ],
      "name": "ERC20InvalidReceiver",
      "type": "error"
    },
    {
      "inputs": [
        {
          "internalType": "address",
          "name": "sender",
          "type": "address"
        }
      ],
      "name": "ERC20InvalidSender",
      "type": "error"
    },
    {
      "inputs": [
        {
          "internalType": "address",
          "name": "spender",
          "type": "address"
        }
      ],
      "name": "ERC20InvalidSpender",
      "type": "error"
    },
    {
      "anonymous": false,
      "inputs": [
        {
          "indexed": true,
          "internalType": "address",
          "name": "owner",
          "type": "address"
        },
        {
          "indexed": true,
          "internalType": "address",
          "name": "spender",
          "type": "address"
        },
        {
          "indexed": false,
          "internalType": "uint256",
          "name": "value",
          "type": "uint256"
        }
      ],
      "name": "Approval",
      "type": "event"
    },
    {
      "anonymous": false,
      "inputs": [
        {
          "indexed": true,
          "internalType": "address",
          "name": "from",
          "type": "address"
        },
        {
          "indexed": true,
          "internalType": "address",
          "name": "to",
          "type": "address"
        },
        {
          "indexed": false,
          "internalType": "uint256",
          "name": "value",
          "type": "uint256"
        }
      ],
      "name": "Transfer",
      "type": "event"
    },
    {
      "inputs": [
        {
          "internalType": "address",
          "name": "owner",
          "type": "address"
        },
        {
          "internalType": "address",
          "name": "spender",
          "type": "address"
        }
      ],
      "name": "allowance",
      "outputs": [
        {
          "internalType": "uint256",
          "name": "",
          "type": "uint256"
        }
      ],
      "stateMutability": "view",
      "type": "function"
    },
    {
      "inputs": [
        {
          "internalType": "address",
          "name": "spender",
          "type": "address"
        },
        {
          "internalType": "uint256",
          "name": "value",
          "type": "uint256"
        }
      ],
      "name": "approve",
      "outputs": [
        {
          "internalType": "bool",
          "name": "",
          "type": "bool"
        }
      ],
      "stateMutability": "nonpayable",
      "type": "function"
    },
    {
      "inputs": [
        {
          "internalType": "address",
          "name": "account",
          "type": "address"
        }
      ],
      "name": "balanceOf",
      "outputs": [
        {
          "internalType": "uint256",
          "name": "",
          "type": "uint256"
        }
      ],
      "stateMutability": "view",
      "type": "function"
    },
    {
      "inputs": [],
      "name": "decimals",
      "outputs": [
        {
          "internalType": "uint8",
          "name": "",
          "type": "uint8"
        }
      ],
      "stateMutability": "view",
      "type": "function"
    },
    {
      "inputs": [],
      "name": "fee",
      "outputs": [
        {
          "internalType": "uint256",
          "name": "",
          "type": "uint256"
        }
      ],
      "stateMutability": "view",
      "type": "function"
    },
    {
      "inputs": [],
      "name": "name",
      "outputs": [
        {
          "internalType": "string",
          "name": "",
          "type": "string"
        }
      ],
      "stateMutability": "view",
      "type": "function"
    },
    {
      "inputs": [],
      "name": "owner",
      "outputs": [
        {
          "internalType": "address payable",
          "name": "",
          "type": "address"
        }
      ],
      "stateMutability": "view",
      "type": "function"
    },
    {
      "inputs": [],
      "name": "symbol",
      "outputs": [
        {
          "internalType": "string",
          "name": "",
          "type": "string"
        }
      ],
      "stateMutability": "view",
      "type": "function"
    },
    {
      "inputs": [],
      "name": "totalSupply",
      "outputs": [
        {
          "internalType": "uint256",
          "name": "",
          "type": "uint256"
        }
      ],
      "stateMutability": "view",
      "type": "function"
    },
    {
      "inputs": [
        {
          "internalType": "address",
          "name": "to",
          "type": "address"
        },
        {
          "internalType": "uint256",
          "name": "value",
          "type": "uint256"
        }
      ],
      "name": "transfer",
      "outputs": [
        {
          "internalType": "bool",
          "name": "",
          "type": "bool"
        }
      ],
      "stateMutability": "nonpayable",
      "type": "function"
    },
    {
      "inputs": [
        {
          "internalType": "address",
          "name": "from",
          "type": "address"
        },
        {
          "internalType": "address",
          "name": "to",
          "type": "address"
        },
        {
          "internalType": "uint256",
          "name": "value",
          "type": "uint256"
        }
      ],
      "name": "transferFrom",
      "outputs": [
        {
          "internalType": "bool",
          "name": "",
          "type": "bool"
        }
      ],
      "stateMutability": "nonpayable",
      "type": "function"
    }
  ],
  "bytecode": "0x6080604052604051611dba380380611dba8339818101604052810190610025919061069f565b828281600390816100369190610941565b5080600490816100469190610941565b50505080341461008b576040517f08c379a000000000000000000000000000000000000000000000000000000000815260040161008290610a70565b60405180910390fd5b65048c273950008110156100d4576040517f08c379a00000000000000000000000000000000000000000000000000000000081526004016100cb90610adc565b60405180910390fd5b733e5c1429e97f8cd9c4ef409e02d1542992c8eca2600560006101000a81548173ffffffffffffffffffffffffffffffffffffffff021916908373ffffffffffffffffffffffffffffffffffffffff160217905550806006819055506000600560009054906101000a900473ffffffffffffffffffffffffffffffffffffffff1673ffffffffffffffffffffffffffffffffffffffff163460405161017890610b2d565b60006040518083038185875af1925050503d80600081146101b5576040519150601f19603f3d011682016040523d82523d6000602084013e6101ba565b606091505b50509050806101fe576040517f08c379a00000000000000000000000000000000000000000000000000000000081526004016101f590610b8e565b60405180910390fd5b6102353361021061023e60201b60201c565b600a61021c9190610d1d565b620f424061022a9190610d68565b61024760201b60201c565b50505050610e9b565b60006012905090565b600073ffffffffffffffffffffffffffffffffffffffff168273ffffffffffffffffffffffffffffffffffffffff16036102b95760006040517fec442f050000000000000000000000000000000000000000000000000000000081526004016102b09190610deb565b60405180910390fd5b6102cb600083836102cf60201b60201c565b5050565b600073ffffffffffffffffffffffffffffffffffffffff168373ffffffffffffffffffffffffffffffffffffffff16036103215780600260008282546103159190610e06565b925050819055506103f4565b60008060008573ffffffffffffffffffffffffffffffffffffffff1673ffffffffffffffffffffffffffffffffffffffff168152602001908152602001600020549050818110156103ad578381836040517fe450d38c0000000000000000000000000000000000000000000000000000000081526004016103a493929190610e49565b60405180910390fd5b8181036000808673ffffffffffffffffffffffffffffffffffffffff1673ffffffffffffffffffffffffffffffffffffffff16815260200190815260200160002081905550505b600073ffffffffffffffffffffffffffffffffffffffff168273ffffffffffffffffffffffffffffffffffffffff160361043d578060026000828254039250508190555061048a565b806000808473ffffffffffffffffffffffffffffffffffffffff1673ffffffffffffffffffffffffffffffffffffffff168152602001908152602001600020600082825401925050819055505b8173ffffffffffffffffffffffffffffffffffffffff168373ffffffffffffffffffffffffffffffffffffffff167fddf252ad1be2c89b69c2b068fc378daa952ba7f163c4a11628f55a4df523b3ef836040516104e79190610e80565b60405180910390a3505050565b6000604051905090565b600080fd5b600080fd5b600080fd5b600080fd5b6000601f19601f8301169050919050565b7f4e487b7100000000000000000000000000000000000000000000000000000000600052604160045260246000fd5b61055b82610512565b810181811067ffffffffffffffff8211171561057a57610579610523565b5b80604052505050565b600061058d6104f4565b90506105998282610552565b919050565b600067ffffffffffffffff8211156105b9576105b8610523565b5b6105c282610512565b9050602081019050919050565b60005b838110156105ed5780820151818401526020810190506105d2565b60008484015250505050565b600061060c6106078461059e565b610583565b9050828152602081018484840111156106285761062761050d565b5b6106338482856105cf565b509392505050565b600082601f8301126106505761064f610508565b5b81516106608482602086016105f9565b91505092915050565b6000819050919050565b61067c81610669565b811461068757600080fd5b50565b60008151905061069981610673565b92915050565b6000806000606084860312156106b8576106b76104fe565b5b600084015167ffffffffffffffff8111156106d6576106d5610503565b5b6106e28682870161063b565b935050602084015167ffffffffffffffff81111561070357610702610503565b5b61070f8682870161063b565b92505060406107208682870161068a565b9150509250925092565b600081519050919050565b7f4e487b7100000000000000000000000000000000000000000000000000000000600052602260045260246000fd5b6000600282049050600182168061077c57607f821691505b60208210810361078f5761078e610735565b5b50919050565b60008190508160005260206000209050919050565b60006020601f8301049050919050565b600082821b905092915050565b6000600883026107f77fffffffffffffffffffffffffffffffffffffffffffffffffffffffffffffffff826107ba565b61080186836107ba565b95508019841693508086168417925050509392505050565b6000819050919050565b600061083e61083961083484610669565b610819565b610669565b9050919050565b6000819050919050565b61085883610823565b61086c61086482610845565b8484546107c7565b825550505050565b600090565b610881610874565b61088c81848461084f565b505050565b5b818110156108b0576108a5600082610879565b600181019050610892565b5050565b601f8211156108f5576108c681610795565b6108cf846107aa565b810160208510156108de578190505b6108f26108ea856107aa565b830182610891565b50505b505050565b600082821c905092915050565b6000610918600019846008026108fa565b1980831691505092915050565b60006109318383610907565b9150826002028217905092915050565b61094a8261072a565b67ffffffffffffffff81111561096357610962610523565b5b61096d8254610764565b6109788282856108b4565b600060209050601f8311600181146109ab5760008415610999578287015190505b6109a38582610925565b865550610a0b565b601f1984166109b986610795565b60005b828110156109e1578489015182556001820191506020850194506020810190506109bc565b868310156109fe57848901516109fa601f891682610907565b8355505b6001600288020188555050505b505050505050565b600082825260208201905092915050565b7f496e636f7272656374206665652073656e740000000000000000000000000000600082015250565b6000610a5a601283610a13565b9150610a6582610a24565b602082019050919050565b60006020820190508181036000830152610a8981610a4d565b9050919050565b7f46656520746f6f206c6f77000000000000000000000000000000000000000000600082015250565b6000610ac6600b83610a13565b9150610ad182610a90565b602082019050919050565b60006020820190508181036000830152610af581610ab9565b9050919050565b600081905092915050565b50565b6000610b17600083610afc565b9150610b2282610b07565b600082019050919050565b6000610b3882610b0a565b9150819050919050565b7f4661696c656420746f2073656e64206665650000000000000000000000000000600082015250565b6000610b78601283610a13565b9150610b8382610b42565b602082019050919050565b60006020820190508181036000830152610ba781610b6b565b9050919050565b7f4e487b7100000000000000000000000000000000000000000000000000000000600052601160045260246000fd5b60008160011c9050919050565b6000808291508390505b6001851115610c3457808604811115610c1057610c0f610bae565b5b6001851615610c1f5780820291505b8081029050610c2d85610bdd565b9450610bf4565b94509492505050565b600082610c4d5760019050610d09565b81610c5b5760009050610d09565b8160018114610c715760028114610c7b57610caa565b6001915050610d09565b60ff841115610c8d57610c8c610bae565b5b8360020a915084821115610ca457610ca3610bae565b5b50610d09565b5060208310610133831016604e8410600b8410161715610cdf5782820a905083811115610cda57610cd9610bae565b5b610d09565b610cec8484846001610bea565b92509050818404811115610d0357610d02610bae565b5b81810290505b9392505050565b600060ff82169050919050565b6000610d2882610669565b9150610d3383610d10565b9250610d607fffffffffffffffffffffffffffffffffffffffffffffffffffffffffffffffff8484610c3d565b905092915050565b6000610d7382610669565b9150610d7e83610669565b9250828202610d8c81610669565b91508282048414831517610da357610da2610bae565b5b5092915050565b600073ffffffffffffffffffffffffffffffffffffffff82169050919050565b6000610dd582610daa565b9050919050565b610de581610dca565b82525050565b6000602082019050610e006000830184610ddc565b92915050565b6000610e1182610669565b9150610e1c83610669565b9250828201905080821115610e3457610e33610bae565b5b92915050565b610e4381610669565b82525050565b6000606082019050610e5e6000830186610ddc565b610e6b6020830185610e3a565b610e786040830184610e3a565b949350505050565b6000602082019050610e956000830184610e3a565b92915050565b610f1080610eaa6000396000f3fe608060405234801561001057600080fd5b50600436106100a95760003560e01c806370a082311161007157806370a08231146101685780638da5cb5b1461019857806395d89b41146101b6578063a9059cbb146101d4578063dd62ed3e14610204578063ddca3f4314610234576100a9565b806306fdde03146100ae578063095ea7b3146100cc57806318160ddd146100fc57806323b872dd1461011a578063313ce5671461014a575b600080fd5b6100b6610252565b6040516100c39190610b28565b60405180910390f35b6100e660048036038101906100e19190610be3565b6102e4565b6040516100f39190610c3e565b60405180910390f35b610104610307565b6040516101119190610c68565b60405180910390f35b610134600480360381019061012f9190610c83565b610311565b6040516101419190610c3e565b60405180910390f35b610152610340565b60405161015f9190610cf2565b60405180910390f35b610182600480360381019061017d9190610d0d565b610349565b60405161018f9190610c68565b60405180910390f35b6101a0610391565b6040516101ad9190610d5b565b60405180910390f35b6101be6103b7565b6040516101cb9190610b28565b60405180910390f35b6101ee60048036038101906101e99190610be3565b610449565b6040516101fb9190610c3e565b60405180910390f35b61021e60048036038101906102199190610d76565b61046c565b60405161022b9190610c68565b60405180910390f35b61023c6104f3565b6040516102499190610c68565b60405180910390f35b60606003805461026190610de5565b80601f016020809104026020016040519081016040528092919081815260200182805461028d90610de5565b80156102da5780601f106102af576101008083540402835291602001916102da565b820191906000526020600020905b8154815290600101906020018083116102bd57829003601f168201915b5050505050905090565b6000806102ef6104f9565b90506102fc818585610501565b600191505092915050565b6000600254905090565b60008061031c6104f9565b9050610329858285610513565b6103348585856105a8565b60019150509392505050565b60006012905090565b60008060008373ffffffffffffffffffffffffffffffffffffffff1673ffffffffffffffffffffffffffffffffffffffff168152602001908152602001600020549050919050565b600560009054906101000a900473ffffffffffffffffffffffffffffffffffffffff1681565b6060600480546103c690610de5565b80601f01602080910402602001604051908101604052809291908181526020018280546103f290610de5565b801561043f5780601f106104145761010080835404028352916020019161043f565b820191906000526020600020905b81548152906001019060200180831161042257829003601f168201915b5050505050905090565b6000806104546104f9565b90506104618185856105a8565b600191505092915050565b6000600160008473ffffffffffffffffffffffffffffffffffffffff1673ffffffffffffffffffffffffffffffffffffffff16815260200190815260200160002060008373ffffffffffffffffffffffffffffffffffffffff1673ffffffffffffffffffffffffffffffffffffffff16815260200190815260200160002054905092915050565b60065481565b600033905090565b61050e838383600161069c565b505050565b600061051f848461046c565b90507fffffffffffffffffffffffffffffffffffffffffffffffffffffffffffffffff8110156105a25781811015610592578281836040517ffb8f41b200000000000000000000000000000000000000000000000000000000815260040161058993929190610e25565b60405180910390fd5b6105a18484848403600061069c565b5b50505050565b600073ffffffffffffffffffffffffffffffffffffffff168373ffffffffffffffffffffffffffffffffffffffff160361061a5760006040517f96c6fd1e0000000000000000000000000000000000000000000000000000000081526004016106119190610e5c565b60405180910390fd5b600073ffffffffffffffffffffffffffffffffffffffff168273ffffffffffffffffffffffffffffffffffffffff160361068c5760006040517fec442f050000000000000000000000000000000000000000000000000000000081526004016106839190610e5c565b60405180910390fd5b610697838383610873565b505050565b600073ffffffffffffffffffffffffffffffffffffffff168473ffffffffffffffffffffffffffffffffffffffff160361070e5760006040517fe602df050000000000000000000000000000000000000000000000000000000081526004016107059190610e5c565b60405180910390fd5b600073ffffffffffffffffffffffffffffffffffffffff168373ffffffffffffffffffffffffffffffffffffffff16036107805760006040517f94280d620000000000000000000000000000000000000000000000000000000081526004016107779190610e5c565b60405180910390fd5b81600160008673ffffffffffffffffffffffffffffffffffffffff1673ffffffffffffffffffffffffffffffffffffffff16815260200190815260200160002060008573ffffffffffffffffffffffffffffffffffffffff1673ffffffffffffffffffffffffffffffffffffffff16815260200190815260200160002081905550801561086d578273ffffffffffffffffffffffffffffffffffffffff168473ffffffffffffffffffffffffffffffffffffffff167f8c5be1e5ebec7d5bd14f71427d1e84f3dd0314c0f7b2291e5b200ac8c7c3b925846040516108649190610c68565b60405180910390a35b50505050565b600073ffffffffffffffffffffffffffffffffffffffff168373ffffffffffffffffffffffffffffffffffffffff16036108c55780600260008282546108b99190610ea6565b92505081905550610998565b60008060008573ffffffffffffffffffffffffffffffffffffffff1673ffffffffffffffffffffffffffffffffffffffff16815260200190815260200160002054905081811015610951578381836040517fe450d38c00000000000000000000000000000000000000000000000000000000815260040161094893929190610e25565b60405180910390fd5b8181036000808673ffffffffffffffffffffffffffffffffffffffff1673ffffffffffffffffffffffffffffffffffffffff16815260200190815260200160002081905550505b600073ffffffffffffffffffffffffffffffffffffffff168273ffffffffffffffffffffffffffffffffffffffff16036109e15780600260008282540392505081905550610a2e565b806000808473ffffffffffffffffffffffffffffffffffffffff1673ffffffffffffffffffffffffffffffffffffffff168152602001908152602001600020600082825401925050819055505b8173ffffffffffffffffffffffffffffffffffffffff168373ffffffffffffffffffffffffffffffffffffffff167fddf252ad1be2c89b69c2b068fc378daa952ba7f163c4a11628f55a4df523b3ef83604051610a8b9190610c68565b60405180910390a3505050565b600081519050919050565b600082825260208201905092915050565b60005b83811015610ad2578082015181840152602081019050610ab7565b60008484015250505050565b6000601f19601f8301169050919050565b6000610afa82610a98565b610b048185610aa3565b9350610b14818560208601610ab4565b610b1d81610ade565b840191505092915050565b60006020820190508181036000830152610b428184610aef565b905092915050565b600080fd5b600073ffffffffffffffffffffffffffffffffffffffff82169050919050565b6000610b7a82610b4f565b9050919050565b610b8a81610b6f565b8114610b9557600080fd5b50565b600081359050610ba781610b81565b92915050565b6000819050919050565b610bc081610bad565b8114610bcb57600080fd5b50565b600081359050610bdd81610bb7565b92915050565b60008060408385031215610bfa57610bf9610b4a565b5b6000610c0885828601610b98565b9250506020610c1985828601610bce565b9150509250929050565b60008115159050919050565b610c3881610c23565b82525050565b6000602082019050610c536000830184610c2f565b92915050565b610c6281610bad565b82525050565b6000602082019050610c7d6000830184610c59565b92915050565b600080600060608486031215610c9c57610c9b610b4a565b5b6000610caa86828701610b98565b9350506020610cbb86828701610b98565b9250506040610ccc86828701610bce565b9150509250925092565b600060ff82169050919050565b610cec81610cd6565b82525050565b6000602082019050610d076000830184610ce3565b92915050565b600060208284031215610d2357610d22610b4a565b5b6000610d3184828501610b98565b91505092915050565b6000610d4582610b4f565b9050919050565b610d5581610d3a565b82525050565b6000602082019050610d706000830184610d4c565b92915050565b60008060408385031215610d8d57610d8c610b4a565b5b6000610d9b85828601610b98565b9250506020610dac85828601610b98565b9150509250929050565b7f4e487b7100000000000000000000000000000000000000000000000000000000600052602260045260246000fd5b60006002820490506001821680610dfd57607f821691505b602082108103610e1057610e0f610db6565b5b50919050565b610e1f81610b6f565b82525050565b6000606082019050610e3a6000830186610e16565b610e476020830185610c59565b610e546040830184610c59565b949350505050565b6000602082019050610e716000830184610e16565b92915050565b7f4e487b7100000000000000000000000000000000000000000000000000000000600052601160045260246000fd5b6000610eb182610bad565b9150610ebc83610bad565b9250828201905080821115610ed457610ed3610e77565b5b9291505056fea264697066735822122097740bfba16ba4e737590481dc2822c3a409b16a38703482a735f8c65137e3b464736f6c634300081c0033",
  "linkReferences": {},
  "deployedLinkReferences": {}
}